{"abi":[{"type":"constructor","inputs":[{"name":"_name","type":"string","internalType":"string"},{"name":"_symbol","type":"string","internalType":"string"},{"name":"_asset","type":"address","internalType":"address"},{"name":"_riskyAsset","type":"address","internalType":"address"},{"name":"_priceFeed","type":"address","internalType":"address"},{"name":"_swapRouter","type":"address","internalType":"address"}],"stateMutability":"nonpayable"},{"type":"function","name":"PERCENTAGE_PRECISION","inputs":[],"outputs":[{"name":"","type":"uint256","internalType":"uint256"}],"stateMutability":"view"},{"type":"function","name":"allowance","inputs":[{"name":"owner","type":"address","internalType":"address"},{"name":"spender","type":"address","internalType":"address"}],"outputs":[{"name":"","type":"uint256","internalType":"uint256"}],"stateMutability":"view"},{"type":"function","name":"approve","inputs":[{"name":"spender","type":"address","internalType":"address"},{"name":"value","type":"uint256","internalType":"uint256"}],"outputs":[{"name":"","type":"bool","internalType":"bool"}],"stateMutability":"nonpayable"},{"type":"function","name":"asset","inputs":[],"outputs":[{"name":"","type":"address","internalType":"address"}],"stateMutability":"view"},{"type":"function","name":"balanceOf","inputs":[{"name":"account","type":"address","internalType":"address"}],"outputs":[{"name":"","type":"uint256","internalType":"uint256"}],"stateMutability":"view"},{"type":"function","name":"convertToAssets","inputs":[{"name":"shares","type":"uint256","internalType":"uint256"}],"outputs":[{"name":"","type":"uint256","internalType":"uint256"}],"stateMutability":"view"},{"type":"function","name":"convertToShares","inputs":[{"name":"assets","type":"uint256","internalType":"uint256"}],"outputs":[{"name":"","type":"uint256","internalType":"uint256"}],"stateMutability":"view"},{"type":"function","name":"decimals","inputs":[],"outputs":[{"name":"","type":"uint8","internalType":"uint8"}],"stateMutability":"view"},{"type":"function","name":"deposit","inputs":[{"name":"assets","type":"uint256","internalType":"uint256"},{"name":"receiver","type":"address","internalType":"address"}],"outputs":[{"name":"","type":"uint256","internalType":"uint256"}],"stateMutability":"nonpayable"},{"type":"function","name":"getChainlinkDataFeedLatestAnswer","inputs":[],"outputs":[{"name":"","type":"int256","internalType":"int256"},{"name":"","type":"uint256","internalType":"uint256"}],"stateMutability":"view"},{"type":"function","name":"maxDeposit","inputs":[{"name":"","type":"address","internalType":"address"}],"outputs":[{"name":"","type":"uint256","internalType":"uint256"}],"stateMutability":"view"},{"type":"function","name":"maxMint","inputs":[{"name":"","type":"address","internalType":"address"}],"outputs":[{"name":"","type":"uint256","internalType":"uint256"}],"stateMutability":"view"},{"type":"function","name":"maxRedeem","inputs":[{"name":"owner","type":"address","internalType":"address"}],"outputs":[{"name":"","type":"uint256","internalType":"uint256"}],"stateMutability":"view"},{"type":"function","name":"maxWithdraw","inputs":[{"name":"owner","type":"address","internalType":"address"}],"outputs":[{"name":"","type":"uint256","internalType":"uint256"}],"stateMutability":"view"},{"type":"function","name":"mint","inputs":[{"name":"shares","type":"uint256","internalType":"uint256"},{"name":"receiver","type":"address","internalType":"address"}],"outputs":[{"name":"","type":"uint256","internalType":"uint256"}],"stateMutability":"nonpayable"},{"type":"function","name":"name","inputs":[],"outputs":[{"name":"","type":"string","internalType":"string"}],"stateMutability":"view"},{"type":"function","name":"owner","inputs":[],"outputs":[{"name":"","type":"address","internalType":"address"}],"stateMutability":"view"},{"type":"function","name":"previewDeposit","inputs":[{"name":"assets","type":"uint256","internalType":"uint256"}],"outputs":[{"name":"","type":"uint256","internalType":"uint256"}],"stateMutability":"view"},{"type":"function","name":"previewMint","inputs":[{"name":"shares","type":"uint256","internalType":"uint256"}],"outputs":[{"name":"","type":"uint256","internalType":"uint256"}],"stateMutability":"view"},{"type":"function","name":"previewRedeem","inputs":[{"name":"shares","type":"uint256","internalType":"uint256"}],"outputs":[{"name":"","type":"uint256","internalType":"uint256"}],"stateMutability":"view"},{"type":"function","name":"previewWithdraw","inputs":[{"name":"assets","type":"uint256","internalType":"uint256"}],"outputs":[{"name":"","type":"uint256","internalType":"uint256"}],"stateMutability":"view"},{"type":"function","name":"priceFeed","inputs":[],"outputs":[{"name":"","type":"address","internalType":"contract AggregatorV3Interface"}],"stateMutability":"view"},{"type":"function","name":"rebalance","inputs":[{"name":"_percentageSafeAsset","type":"uint256","internalType":"uint256"},{"name":"_percentageRiskyAsset","type":"uint256","internalType":"uint256"}],"outputs":[],"stateMutability":"nonpayable"},{"type":"function","name":"redeem","inputs":[{"name":"shares","type":"uint256","internalType":"uint256"},{"name":"receiver","type":"address","internalType":"address"},{"name":"owner","type":"address","internalType":"address"}],"outputs":[{"name":"","type":"uint256","internalType":"uint256"}],"stateMutability":"nonpayable"},{"type":"function","name":"renounceOwnership","inputs":[],"outputs":[],"stateMutability":"nonpayable"},{"type":"function","name":"riskyAsset","inputs":[],"outputs":[{"name":"","type":"address","internalType":"address"}],"stateMutability":"view"},{"type":"function","name":"riskyAssetDecimals","inputs":[],"outputs":[{"name":"","type":"uint256","internalType":"uint256"}],"stateMutability":"view"},{"type":"function","name":"safeAssetDecimals","inputs":[],"outputs":[{"name":"","type":"uint256","internalType":"uint256"}],"stateMutability":"view"},{"type":"function","name":"swapExactInputSingle","inputs":[{"name":"tokenIn","type":"address","internalType":"address"},{"name":"tokenOut","type":"address","internalType":"address"},{"name":"amountIn","type":"uint256","internalType":"uint256"},{"name":"poolFee","type":"uint24","internalType":"uint24"}],"outputs":[{"name":"amountOut","type":"uint256","internalType":"uint256"}],"stateMutability":"nonpayable"},{"type":"function","name":"swapExactOutputSingle","inputs":[{"name":"tokenIn","type":"address","internalType":"address"},{"name":"tokenOut","type":"address","internalType":"address"},{"name":"amountOut","type":"uint256","internalType":"uint256"},{"name":"amountInMaximum","type":"uint256","internalType":"uint256"},{"name":"poolFee","type":"uint24","internalType":"uint24"}],"outputs":[{"name":"amountIn","type":"uint256","internalType":"uint256"}],"stateMutability":"nonpayable"},{"type":"function","name":"swapRouter","inputs":[],"outputs":[{"name":"","type":"address","internalType":"contract ISwapRouter"}],"stateMutability":"view"},{"type":"function","name":"symbol","inputs":[],"outputs":[{"name":"","type":"string","internalType":"string"}],"stateMutability":"view"},{"type":"function","name":"totalAssets","inputs":[],"outputs":[{"name":"","type":"uint256","internalType":"uint256"}],"stateMutability":"view"},{"type":"function","name":"totalRiskyAssetsInSafe","inputs":[],"outputs":[{"name":"","type":"uint256","internalType":"uint256"}],"stateMutability":"view"},{"type":"function","name":"totalSafeAssets","inputs":[],"outputs":[{"name":"","type":"uint256","internalType":"uint256"}],"stateMutability":"view"},{"type":"function","name":"totalSupply","inputs":[],"outputs":[{"name":"","type":"uint256","internalType":"uint256"}],"stateMutability":"view"},{"type":"function","name":"transfer","inputs":[{"name":"to","type":"address","internalType":"address"},{"name":"value","type":"uint256","internalType":"uint256"}],"outputs":[{"name":"","type":"bool","internalType":"bool"}],"stateMutability":"nonpayable"},{"type":"function","name":"transferFrom","inputs":[{"name":"from","type":"address","internalType":"address"},{"name":"to","type":"address","internalType":"address"},{"name":"value","type":"uint256","internalType":"uint256"}],"outputs":[{"name":"","type":"bool","internalType":"bool"}],"stateMutability":"nonpayable"},{"type":"function","name":"transferOwnership","inputs":[{"name":"newOwner","type":"address","internalType":"address"}],"outputs":[],"stateMutability":"nonpayable"},{"type":"function","name":"withdraw","inputs":[{"name":"assets","type":"uint256","internalType":"uint256"},{"name":"receiver","type":"address","internalType":"address"},{"name":"owner","type":"address","internalType":"address"}],"outputs":[{"name":"","type":"uint256","internalType":"uint256"}],"stateMutability":"nonpayable"},{"type":"event","name":"Approval","inputs":[{"name":"owner","type":"address","indexed":true,"internalType":"address"},{"name":"spender","type":"address","indexed":true,"internalType":"address"},{"name":"value","type":"uint256","indexed":false,"internalType":"uint256"}],"anonymous":false},{"type":"event","name":"Deposit","inputs":[{"name":"sender","type":"address","indexed":true,"internalType":"address"},{"name":"owner","type":"address","indexed":true,"internalType":"address"},{"name":"assets","type":"uint256","indexed":false,"internalType":"uint256"},{"name":"shares","type":"uint256","indexed":false,"internalType":"uint256"}],"anonymous":false},{"type":"event","name":"OwnershipTransferred","inputs":[{"name":"previousOwner","type":"address","indexed":true,"internalType":"address"},{"name":"newOwner","type":"address","indexed":true,"internalType":"address"}],"anonymous":false},{"type":"event","name":"Transfer","inputs":[{"name":"from","type":"address","indexed":true,"internalType":"address"},{"name":"to","type":"address","indexed":true,"internalType":"address"},{"name":"value","type":"uint256","indexed":false,"internalType":"uint256"}],"anonymous":false},{"type":"event","name":"Withdraw","inputs":[{"name":"sender","type":"address","indexed":true,"internalType":"address"},{"name":"receiver","type":"address","indexed":true,"internalType":"address"},{"name":"owner","type":"address","indexed":true,"internalType":"address"},{"name":"assets","type":"uint256","indexed":false,"internalType":"uint256"},{"name":"shares","type":"uint256","indexed":false,"internalType":"uint256"}],"anonymous":false},{"type":"error","name":"ERC20InsufficientAllowance","inputs":[{"name":"spender","type":"address","internalType":"address"},{"name":"allowance","type":"uint256","internalType":"uint256"},{"name":"needed","type":"uint256","internalType":"uint256"}]},{"type":"error","name":"ERC20InsufficientBalance","inputs":[{"name":"sender","type":"address","internalType":"address"},{"name":"balance","type":"uint256","internalType":"uint256"},{"name":"needed","type":"uint256","internalType":"uint256"}]},{"type":"error","name":"ERC20InvalidApprover","inputs":[{"name":"approver","type":"address","internalType":"address"}]},{"type":"error","name":"ERC20InvalidReceiver","inputs":[{"name":"receiver","type":"address","internalType":"address"}]},{"type":"error","name":"ERC20InvalidSender","inputs":[{"name":"sender","type":"address","internalType":"address"}]},{"type":"error","name":"ERC20InvalidSpender","inputs":[{"name":"spender","type":"address","internalType":"address"}]},{"type":"error","name":"ERC4626ExceededMaxDeposit","inputs":[{"name":"receiver","type":"address","internalType":"address"},{"name":"assets","type":"uint256","internalType":"uint256"},{"name":"max","type":"uint256","internalType":"uint256"}]},{"type":"error","name":"ERC4626ExceededMaxMint","inputs":[{"name":"receiver","type":"address","internalType":"address"},{"name":"shares","type":"uint256","internalType":"uint256"},{"name":"max","type":"uint256","internalType":"uint256"}]},{"type":"error","name":"ERC4626ExceededMaxRedeem","inputs":[{"name":"owner","type":"address","internalType":"address"},{"name":"shares","type":"uint256","internalType":"uint256"},{"name":"max","type":"uint256","internalType":"uint256"}]},{"type":"error","name":"ERC4626ExceededMaxWithdraw","inputs":[{"name":"owner","type":"address","internalType":"address"},{"name":"assets","type":"uint256","internalType":"uint256"},{"name":"max","type":"uint256","internalType":"uint256"}]},{"type":"error","name":"OwnableInvalidOwner","inputs":[{"name":"owner","type":"address","internalType":"address"}]},{"type":"error","name":"OwnableUnauthorizedAccount","inputs":[{"name":"account","type":"address","internalType":"address"}]},{"type":"error","name":"SafeERC20FailedOperation","inputs":[{"name":"token","type":"address","internalType":"address"}]}],"bytecode":{"object":"0x610100806040523461049d576123dc803803809161001d82856104a2565b833981019060c08183031261049d5780516001600160401b03811161049d57826100489183016104e0565b602082015190926001600160401b03821161049d576100689183016104e0565b9061007560408201610540565b9261008260608301610540565b9261008f60808401610540565b926001600160a01b03906100a59060a001610540565b83519116956001600160a01b0316926001600160401b03821161039a5760035490600182811c92168015610493575b602083101461037a5781601f849311610423575b50602090601f83116001146103bb576000926103b0575b50508160011b916000199060031b1c1916176003555b8051906001600160401b03821161039a5760045490600182811c92168015610390575b602083101461037a5781601f84931161030a575b50602090601f83116001146102a257600092610297575b50508160011b916000199060031b1c1916176004555b61018281610554565b901561028f575b60a05260805233156102795760058054336001600160a01b0319821681179092556040519491906001600160a01b03167f8be0079c531659141344cd1fd0a4f28419497f9722a3daafe3b4186f6b6457e0600080a360c0526006600781905560126008556001600160a01b0391821660e05280546001600160a01b03191692909116919091179055611de090816105fc82396080518181816105e20152818161064b01528181610c83015281816114da0152611a52015260a05181610cc7015260c05181818161029f0152818161077d01528181610d8301526113bb015260e051818181610ba901526115890152f35b631e4fbdf760e01b600052600060045260246000fd5b506012610189565b015190503880610163565b600460009081528281209350601f198516905b8181106102f257509084600195949392106102d9575b505050811b01600455610179565b015160001960f88460031b161c191690553880806102cb565b929360206001819287860151815501950193016102b5565b60046000529091507f8a35acfbc15ff81a39ae7d344fd709f28e8600b4aa8c65c6b64bfe7fe36bd19b601f840160051c81019160208510610370575b90601f859493920160051c01905b818110610361575061014c565b60008155849350600101610354565b9091508190610346565b634e487b7160e01b600052602260045260246000fd5b91607f1691610138565b634e487b7160e01b600052604160045260246000fd5b0151905038806100ff565b600360009081528281209350601f198516905b81811061040b57509084600195949392106103f2575b505050811b01600355610115565b015160001960f88460031b161c191690553880806103e4565b929360206001819287860151815501950193016103ce565b60036000529091507fc2575a0e9e593c00f959f8c92f12db2869c3395a3b0502d05e2516446f71f85b601f840160051c81019160208510610489575b90601f859493920160051c01905b81811061047a57506100e8565b6000815584935060010161046d565b909150819061045f565b91607f16916100d4565b600080fd5b601f909101601f19168101906001600160401b0382119082101761039a57604052565b6001600160401b03811161039a57601f01601f191660200190565b81601f8201121561049d578051906104f7826104c5565b9261050560405194856104a2565b8284526020838301011161049d5760005b82811061052b57505060206000918301015290565b80602080928401015182828701015201610516565b51906001600160a01b038216820361049d57565b60008091604051602081019063313ce56760e01b8252600481526105796024826104a2565b51916001600160a01b03165afa3d156105f3573d90610597826104c5565b916105a560405193846104a2565b82523d6000602084013e5b806105e7575b6105c4575b50600090600090565b60208180518101031261049d576020015160ff81116105bb579060ff6001921690565b506020815110156105b6565b6060906105b056fe6080604052600436101561001257600080fd5b60003560e01c806301e1d1141461106c57806306fdde0314610fad57806307a2d13a14610c6857806308f5d13314610f92578063095ea7b314610ee05780630a28a47714610ec257806318160ddd14610ea45780631a32166914610d4857806323b872dd14610d10578063313ce56714610cb257806338d52e0f14610c6d578063402d267d146107625780634cdad50614610c685780636e553f6514610c3557806370a08231146106fe578063715018a614610bd8578063741bef1a14610b935780638464171714610b755780638da5cb5b14610b4c57806394bf804d14610b1957806395d89b4114610a09578063a3803b91146109ee578063a9059cbb146109bd578063b3d7f6b91461099f578063b460af941461086d578063ba087652146107fc578063bb202793146107d3578063bea4dfb5146107ac578063c31c9c0714610767578063c63d75b614610762578063c6e6f59214610263578063ce96cb771461073f578063d905777e146106fe578063dd62ed3e146106ad578063df8879b81461054c578063e140710f1461052e578063e256888f14610511578063eb70624b14610268578063ef8b30f7146102635763f2fde38b146101d457600080fd5b3461025e57602036600319011261025e576101ed6110e6565b6101f5611b0c565b6001600160a01b0316801561024857600580546001600160a01b0319811683179091556001600160a01b03167f8be0079c531659141344cd1fd0a4f28419497f9722a3daafe3b4186f6b6457e0600080a3005b631e4fbdf760e01b600052600060045260246000fd5b600080fd5b611172565b3461025e5760a036600319011261025e576102816110e6565b6102896110fc565b9060643560843562ffffff811680910361025e577f00000000000000000000000000000000000000000000000000000000000000006001600160a01b0316906102d3838386611814565b604051946102e0866111be565b6001600160a01b03858116875216602086015260408086019190915230606086015242608086015260443560a086015260c08501839052600060e086015251631b67c43360e31b815293610338906004860190611359565b602084610104816000855af1938415610505576000946104ce575b50818410610367575b602084604051908152f35b60405163095ea7b360e01b60208201908152602482019290925260006044808301829052825291829161039b6064826111f1565b519082865af16103a96117bc565b8161049f575b5015610475576000916103c38484936114b2565b60405163a9059cbb60e01b60208201908152336024830152604482019290925283906103fc81606481015b03601f1981018352826111f1565b51925af16104086117bc565b81610446575b501561041c5781808061035c565b60405162461bcd60e51b815260206004820152600260248201526114d560f21b6044820152606490fd5b805180159250821561045b575b50508261040e565b61046e92506020809183010191016117fc565b8280610453565b60405162461bcd60e51b8152602060048201526002602482015261534160f01b6044820152606490fd5b80518015925082156104b4575b5050846103af565b6104c792506020809183010191016117fc565b84806104ac565b90936020823d6020116104fd575b816104e9602093836111f1565b810103126104fa5750519284610353565b80fd5b3d91506104dc565b6040513d6000823e3d90fd5b3461025e57600036600319011261025e5760206040516127108152f35b3461025e57600036600319011261025e576020600854604051908152f35b3461025e57604036600319011261025e57602435610568611b0c565b61271061057782600435611213565b036106735761271061059961058a611220565b926105936112cc565b936112b9565b0480821015610609576105d1906105cb6105c5610607946105bf600854600754906114b2565b936114b2565b91611190565b9061119e565b6006546001600160a01b03908116907f0000000000000000000000000000000000000000000000000000000000000000166113b9565b005b80821161061257005b6106079161063961063e926106336105c561062b611579565b9390956114b2565b906112b9565b61119e565b6006546001600160a01b037f0000000000000000000000000000000000000000000000000000000000000000811691166113b9565b60405162461bcd60e51b8152602060048201526012602482015271496e76616c69642070657263656e7461676560701b6044820152606490fd5b3461025e57604036600319011261025e576106c66110e6565b6106ce6110fc565b6001600160a01b039182166000908152600160209081526040808320949093168252928352819020549051908152f35b3461025e57602036600319011261025e57602061073761071c6110e6565b6001600160a01b031660009081526020819052604090205490565b604051908152f35b3461025e57602036600319011261025e57602061073761075d6110e6565b61168d565b611112565b3461025e57600036600319011261025e576040517f00000000000000000000000000000000000000000000000000000000000000006001600160a01b03168152602090f35b3461025e57600036600319011261025e5760406107c7611579565b82519182526020820152f35b3461025e57600036600319011261025e576006546040516001600160a01b039091168152602090f35b3461025e5761080a36611138565b90916108298260018060a01b0316600052600060205260406000205490565b80821161084a57508060209361084161073793611734565b93849133611b35565b91632e52afbb60e21b60005260018060a01b031660045260245260445260646000fd5b3461025e5761087b36611138565b9091806108866114bf565b81116108db575b506108978261168d565b8082116108b85750602092816108af61073793611762565b93849233611b35565b91633fa733bb60e21b60005260018060a01b031660045260245260445260646000fd5b610990915061063361063961098061063e936000806103ee61095d6040516109046060826111f1565b602281527f456e746572696e672077697468647261772073656c6c207269736b7920617373602082015261195d60f21b604082015260405192839163104c13eb60e21b6020840152602060248401526044830190611087565b6020815191016a636f6e736f6c652e6c6f675afa5061097a6114bf565b906114b2565b610988611579565b939093611190565b506109996114bf565b8361088d565b3461025e57602036600319011261025e576020610737600435611706565b3461025e57604036600319011261025e576109e36109d96110e6565b6024359033611947565b602060405160018152f35b3461025e57600036600319011261025e5760206107376114bf565b3461025e57600036600319011261025e5760405160006004548060011c90600181168015610b0f575b602083108114610afb57828552908115610ad75750600114610a77575b610a7383610a5f818503826111f1565b604051918291602083526020830190611087565b0390f35b91905060046000527f8a35acfbc15ff81a39ae7d344fd709f28e8600b4aa8c65c6b64bfe7fe36bd19b916000905b808210610abd57509091508101602001610a5f610a4f565b919260018160209254838588010152019101909291610aa5565b60ff191660208086019190915291151560051b84019091019150610a5f9050610a4f565b634e487b7160e01b84526022600452602484fd5b91607f1691610a32565b3461025e57604036600319011261025e576020600435610737610b3a6110fc565b91610b4481611706565b809333611a0c565b3461025e57600036600319011261025e576005546040516001600160a01b039091168152602090f35b3461025e57600036600319011261025e576020600754604051908152f35b3461025e57600036600319011261025e576040517f00000000000000000000000000000000000000000000000000000000000000006001600160a01b03168152602090f35b3461025e57600036600319011261025e57610bf1611b0c565b600580546001600160a01b031981169091556000906001600160a01b03167f8be0079c531659141344cd1fd0a4f28419497f9722a3daafe3b4186f6b6457e08280a3005b3461025e57604036600319011261025e576020600435610737610c566110fc565b610c5f8361178e565b92839133611a0c565b6110c8565b3461025e57600036600319011261025e576040517f00000000000000000000000000000000000000000000000000000000000000006001600160a01b03168152602090f35b3461025e57600036600319011261025e5760ff7f00000000000000000000000000000000000000000000000000000000000000001660ff8111610cfa57602090604051908152f35b634e487b7160e01b600052601160045260246000fd5b3461025e57606036600319011261025e576109e3610d2c6110e6565b610d346110fc565b60443591610d4383338361189c565b611947565b3461025e57608036600319011261025e57610d616110e6565b610d696110fc565b604435916064359262ffffff841680940361025e576000937f00000000000000000000000000000000000000000000000000000000000000006001600160a01b03169360018301808411610e905792610104928592610dce610e309689602099611814565b60405193610ddb856111be565b60018060a01b0316845260018060a01b031686840152604083015230606083015242608083015260a08201528560c08201528560e082015285604051958694859363414bf38960e01b85526004850190611359565b5af1908115610e85578291610e4b575b602082604051908152f35b90506020813d602011610e7d575b81610e66602093836111f1565b81010312610e7957602091505182610e40565b5080fd5b3d9150610e59565b6040513d84823e3d90fd5b634e487b7160e01b87526011600452602487fd5b3461025e57600036600319011261025e576020600254604051908152f35b3461025e57602036600319011261025e576020610737600435611762565b3461025e57604036600319011261025e57610ef96110e6565b602435903315610f7c576001600160a01b0316908115610f6657336000526001602052604060002082600052602052806040600020556040519081527f8c5be1e5ebec7d5bd14f71427d1e84f3dd0314c0f7b2291e5b200ac8c7c3b92560203392a3602060405160018152f35b634a1406b160e11b600052600060045260246000fd5b63e602df0560e01b600052600060045260246000fd5b3461025e57600036600319011261025e5760206107376112cc565b3461025e57600036600319011261025e5760405160006003548060011c90600181168015611062575b602083108114610afb57828552908115610ad7575060011461100257610a7383610a5f818503826111f1565b91905060036000527fc2575a0e9e593c00f959f8c92f12db2869c3395a3b0502d05e2516446f71f85b916000905b80821061104857509091508101602001610a5f610a4f565b919260018160209254838588010152019101909291611030565b91607f1691610fd6565b3461025e57600036600319011261025e576020610737611220565b919082519283825260005b8481106110b3575050826000602080949584010152601f8019910116010190565b80602080928401015182828601015201611092565b3461025e57602036600319011261025e576020610737600435611734565b600435906001600160a01b038216820361025e57565b602435906001600160a01b038216820361025e57565b3461025e57602036600319011261025e5761112b6110e6565b5060206040516000198152f35b606090600319011261025e57600435906024356001600160a01b038116810361025e57906044356001600160a01b038116810361025e5790565b3461025e57602036600319011261025e57602061073760043561178e565b604d8111610cfa57600a0a90565b81156111a8570490565b634e487b7160e01b600052601260045260246000fd5b610100810190811067ffffffffffffffff8211176111db57604052565b634e487b7160e01b600052604160045260246000fd5b90601f8019910116810190811067ffffffffffffffff8211176111db57604052565b91908201809211610cfa57565b6112b661122b6112cc565b61123f611239600854611190565b8261119e565b90611276604092835161125285826111f1565b601281527162616c616e63655269736b79496e5361666560701b60208201526116ab565b6112b16112816114bf565b809361128f815191826111f1565b601081526f62616c616e636553616665496e57656960801b60208201526116ab565b611213565b90565b81810292918115918404141715610cfa57565b60246112d6611579565b6006546040516370a0823160e01b81523060048201529391929160209185919082906001600160a01b03165afa92831561050557600093611323575b506105c56105cb916112b6946112b9565b92506020833d602011611351575b8161133e602093836111f1565b8101031261025e579151916105c5611312565b3d9150611331565b80516001600160a01b03908116835260208083015182169084015260408083015162ffffff16908401526060808301518216908401526080808301519084015260a0808301519084015260c0808301519084015260e09182015116910152565b7f00000000000000000000000000000000000000000000000000000000000000006001600160a01b03169291906001830190818411610cfa5760209361146f93611407610104948885611814565b60405192611414846111be565b60018060a01b0316835260018060a01b031685830152610bb8604083015230606083015242608083015260a0820152600060c0820152600060e08201526000604051958694859363414bf38960e01b85526004850190611359565b5af190811561050557600091611483575090565b90506020813d6020116114aa575b8161149e602093836111f1565b8101031261025e575190565b3d9150611491565b91908203918211610cfa57565b6040516370a0823160e01b81523060048201526020816024817f00000000000000000000000000000000000000000000000000000000000000006001600160a01b03165afa80156105055760009061152e575b6112b69150610633611529600854600754906114b2565b611190565b506020813d60201161155a575b81611548602093836111f1565b8101031261025e576112b69051611512565b3d915061153b565b519069ffffffffffffffffffff8216820361025e57565b604051633fabe5a360e21b8152907f00000000000000000000000000000000000000000000000000000000000000006001600160a01b031660a083600481845afa9283156105055760009361163b575b509160206004936040519485809263313ce56760e01b82525afa928315610505576000936115fa575b509160ff1690565b6020939193813d602011611633575b81611616602093836111f1565b81010312610e7957519060ff821682036104fa57509160ff6115f2565b3d9150611609565b925060a0833d60a011611685575b8161165660a093836111f1565b8101031261025e5760208361166c600495611562565b5061167d6080838301519201611562565b5093506115c9565b3d9150611649565b60018060a01b031660005260006020526112b6604060002054611734565b6116db6116ef600093928493604051938492632d839cb360e21b6020850152604060248501526064840190611087565b90604483015203601f1981018352826111f1565b6020815191016a636f6e736f6c652e6c6f675afa50565b61170e611220565b9060018201809211610cfa5760025460018101809111610cfa576112b692600192611c4d565b61173c611220565b9060018201809211610cfa5760025460018101809111610cfa576112b692600092611c4d565b600254600190818101809111610cfa5761177a611220565b90828201809211610cfa576112b693611c4d565b6002549060018201809211610cfa576117a5611220565b60018101809111610cfa576112b692600092611c4d565b3d156117f7573d9067ffffffffffffffff82116111db57604051916117eb601f8201601f1916602001846111f1565b82523d6000602084013e565b606090565b9081602091031261025e5751801515810361025e5790565b60405163095ea7b360e01b602082019081526001600160a01b0390931660248201526044810193909352600092839290839061185381606481016103ee565b51925af161185f6117bc565b8161186d575b501561047557565b8051801592508215611882575b505038611865565b61189592506020809183010191016117fc565b388061187a565b6001600160a01b0390811660008181526001602090815260408083209486168352939052919091205492919060001984106118d8575b50505050565b828410611922578015610f7c576001600160a01b03821615610f6657600052600160205260406000209060018060a01b0316600052602052604060002091039055388080806118d2565b508290637dc7a0d960e11b60005260018060a01b031660045260245260445260646000fd5b6001600160a01b03169081156119f6576001600160a01b03169182156119e05760008281528060205260408120548281106119c65791604082827fddf252ad1be2c89b69c2b068fc378daa952ba7f163c4a11628f55a4df523b3ef958760209652828652038282205586815280845220818154019055604051908152a3565b916064928463391434e360e21b8452600452602452604452fd5b63ec442f0560e01b600052600060045260246000fd5b634b637e8f60e11b600052600060045260246000fd5b6040516323b872dd60e01b60208201526001600160a01b039091166024820181905230604483015260648083018590528252929190611a7f90611a506084826111f1565b7f00000000000000000000000000000000000000000000000000000000000000006001600160a01b0316611d4f565b6001600160a01b03169283156119e0577fdcbc1c05240f31ff3ad067ef1ee35ce4997762752e3a095284754544f4c709d79181611ac0604093600254611213565b600255856000818152806020528481208381540190557fddf252ad1be2c89b69c2b068fc378daa952ba7f163c4a11628f55a4df523b3ef60208651858152a382519182526020820152a3565b6005546001600160a01b03163303611b2057565b63118cdaa760e01b6000523360045260246000fd5b6001600160a01b03808416959082169390918290878603611c3c575b50505084156119f6576000858152806020526040812054828110611c2257918181604094897ffbde797d201c681b91056529119e0b02407c7bb96a4a2c75c01fc9667232c8db9795528260205203848220558160025403600255877fddf252ad1be2c89b69c2b068fc378daa952ba7f163c4a11628f55a4df523b3ef60208651858152a3825163a9059cbb60e01b60208201526001600160a01b038316602482015260448101879052611c0b90611a5081606481016103ee565b825195865260208601526001600160a01b031693a4565b916064928763391434e360e21b8452600452602452604452fd5b611c459261189c565b388181611b51565b9291611c5a818386611cad565b926004811015611c97576001809116149182611c80575b50506112b69250151590611213565b90809250156111a8576112b6930915153880611c71565b634e487b7160e01b600052602160045260246000fd5b90916000198383099280830292838086109503948086039514611d425784831115611d295790829109816000038216809204600281600302188082026002030280820260020302808202600203028082026002030280820260020302809102600203029360018380600003040190848311900302920304170290565b82634e487b71600052156003026011186020526024601cfd5b5050906112b6925061119e565b906000602091828151910182855af115610505576000513d611da157506001600160a01b0381163b155b611d805750565b635274afe760e01b60009081526001600160a01b0391909116600452602490fd5b60011415611d7956fea264697066735822122081b6c7c1299061f9fad925f82bbab4633bd621539f7d4746f5fcf671ccb609a264736f6c634300081a0033","linkReferences":{}},"methodIdentifiers":{"PERCENTAGE_PRECISION()":"e256888f","allowance(address,address)":"dd62ed3e","approve(address,uint256)":"095ea7b3","asset()":"38d52e0f","balanceOf(address)":"70a08231","convertToAssets(uint256)":"07a2d13a","convertToShares(uint256)":"c6e6f592","decimals()":"313ce567","deposit(uint256,address)":"6e553f65","getChainlinkDataFeedLatestAnswer()":"bea4dfb5","maxDeposit(address)":"402d267d","maxMint(address)":"c63d75b6","maxRedeem(address)":"d905777e","maxWithdraw(address)":"ce96cb77","mint(uint256,address)":"94bf804d","name()":"06fdde03","owner()":"8da5cb5b","previewDeposit(uint256)":"ef8b30f7","previewMint(uint256)":"b3d7f6b9","previewRedeem(uint256)":"4cdad506","previewWithdraw(uint256)":"0a28a477","priceFeed()":"741bef1a","rebalance(uint256,uint256)":"df8879b8","redeem(uint256,address,address)":"ba087652","renounceOwnership()":"715018a6","riskyAsset()":"bb202793","riskyAssetDecimals()":"e140710f","safeAssetDecimals()":"84641717","swapExactInputSingle(address,address,uint256,uint24)":"1a321669","swapExactOutputSingle(address,address,uint256,uint256,uint24)":"eb70624b","swapRouter()":"c31c9c07","symbol()":"95d89b41","totalAssets()":"01e1d114","totalRiskyAssetsInSafe()":"08f5d133","totalSafeAssets()":"a3803b91","totalSupply()":"18160ddd","transfer(address,uint256)":"a9059cbb","transferFrom(address,address,uint256)":"23b872dd","transferOwnership(address)":"f2fde38b","withdraw(uint256,address,address)":"b460af94"},"id":39}